{
  "contracts/ZombieFactory.sol": {
    "ZombieFactory": {
      "abi": [
        {
          "anonymous": false,
          "inputs": [
            {
              "indexed": false,
              "internalType": "uint256",
              "name": "zombieId",
              "type": "uint256"
            },
            {
              "indexed": false,
              "internalType": "string",
              "name": "name",
              "type": "string"
            },
            {
              "indexed": false,
              "internalType": "uint256",
              "name": "dna",
              "type": "uint256"
            }
          ],
          "name": "NewZombie",
          "type": "event"
        },
        {
          "inputs": [
            {
              "internalType": "string",
              "name": "_name",
              "type": "string"
            }
          ],
          "name": "createRandomZombie",
          "outputs": [],
          "stateMutability": "nonpayable",
          "type": "function"
        },
        {
          "inputs": [],
          "name": "getZombiesCount",
          "outputs": [
            {
              "internalType": "uint256",
              "name": "",
              "type": "uint256"
            }
          ],
          "stateMutability": "view",
          "type": "function"
        },
        {
          "inputs": [
            {
              "internalType": "uint256",
              "name": "",
              "type": "uint256"
            }
          ],
          "name": "zombies",
          "outputs": [
            {
              "internalType": "string",
              "name": "name",
              "type": "string"
            },
            {
              "internalType": "uint256",
              "name": "dna",
              "type": "uint256"
            }
          ],
          "stateMutability": "view",
          "type": "function"
        }
      ],
      "evm": {
        "bytecode": {
          "linkReferences": {},
          "object": "6080604052348015600f57600080fd5b50610b618061001f6000396000f3fe608060405234801561001057600080fd5b50600436106100415760003560e01c80632052465e146100465780637bff0a0114610077578063e343cdec14610093575b600080fd5b610060600480360381019061005b91906102e6565b6100b1565b60405161006e9291906103b2565b60405180910390f35b610091600480360381019061008c9190610517565b61016d565b005b61009b610188565b6040516100a89190610560565b60405180910390f35b600081815481106100c157600080fd5b90600052602060002090600202016000915090508060000180546100e4906105aa565b80601f0160208091040260200160405190810160405280929190818152602001828054610110906105aa565b801561015d5780601f106101325761010080835404028352916020019161015d565b820191906000526020600020905b81548152906001019060200180831161014057829003601f168201915b5050505050908060010154905082565b600061017882610194565b905061018482826101e4565b5050565b60008080549050905090565b600080826040516020016101a89190610617565b6040516020818303038152906040528051906020012060001c90506010600a6101d19190610790565b816101dc919061080a565b915050919050565b60006040518060400160405280848152602001838152509080600181540180825580915050600190039060005260206000209060020201600090919091909150600082015181600001908161023991906109e7565b506020820151816001015550506000600160008054905061025a9190610ab9565b90507f88f026aacbbecc90c18411df4b1185fd8d9be2470f1962f192bf84a27d0704b781848460405161028f93929190610aed565b60405180910390a1505050565b6000604051905090565b600080fd5b600080fd5b6000819050919050565b6102c3816102b0565b81146102ce57600080fd5b50565b6000813590506102e0816102ba565b92915050565b6000602082840312156102fc576102fb6102a6565b5b600061030a848285016102d1565b91505092915050565b600081519050919050565b600082825260208201905092915050565b60005b8381101561034d578082015181840152602081019050610332565b60008484015250505050565b6000601f19601f8301169050919050565b600061037582610313565b61037f818561031e565b935061038f81856020860161032f565b61039881610359565b840191505092915050565b6103ac816102b0565b82525050565b600060408201905081810360008301526103cc818561036a565b90506103db60208301846103a3565b9392505050565b600080fd5b600080fd5b7f4e487b7100000000000000000000000000000000000000000000000000000000600052604160045260246000fd5b61042482610359565b810181811067ffffffffffffffff82111715610443576104426103ec565b5b80604052505050565b600061045661029c565b9050610462828261041b565b919050565b600067ffffffffffffffff821115610482576104816103ec565b5b61048b82610359565b9050602081019050919050565b82818337600083830152505050565b60006104ba6104b584610467565b61044c565b9050828152602081018484840111156104d6576104d56103e7565b5b6104e1848285610498565b509392505050565b600082601f8301126104fe576104fd6103e2565b5b813561050e8482602086016104a7565b91505092915050565b60006020828403121561052d5761052c6102a6565b5b600082013567ffffffffffffffff81111561054b5761054a6102ab565b5b610557848285016104e9565b91505092915050565b600060208201905061057560008301846103a3565b92915050565b7f4e487b7100000000000000000000000000000000000000000000000000000000600052602260045260246000fd5b600060028204905060018216806105c257607f821691505b6020821081036105d5576105d461057b565b5b50919050565b600081905092915050565b60006105f182610313565b6105fb81856105db565b935061060b81856020860161032f565b80840191505092915050565b600061062382846105e6565b915081905092915050565b7f4e487b7100000000000000000000000000000000000000000000000000000000600052601160045260246000fd5b60008160011c9050919050565b6000808291508390505b60018511156106b4578086048111156106905761068f61062e565b5b600185161561069f5780820291505b80810290506106ad8561065d565b9450610674565b94509492505050565b6000826106cd5760019050610789565b816106db5760009050610789565b81600181146106f157600281146106fb5761072a565b6001915050610789565b60ff84111561070d5761070c61062e565b5b8360020a9150848211156107245761072361062e565b5b50610789565b5060208310610133831016604e8410600b841016171561075f5782820a90508381111561075a5761075961062e565b5b610789565b61076c848484600161066a565b925090508184048111156107835761078261062e565b5b81810290505b9392505050565b600061079b826102b0565b91506107a6836102b0565b92506107d37fffffffffffffffffffffffffffffffffffffffffffffffffffffffffffffffff84846106bd565b905092915050565b7f4e487b7100000000000000000000000000000000000000000000000000000000600052601260045260246000fd5b6000610815826102b0565b9150610820836102b0565b9250826108305761082f6107db565b5b828206905092915050565b60008190508160005260206000209050919050565b60006020601f8301049050919050565b600082821b905092915050565b60006008830261089d7fffffffffffffffffffffffffffffffffffffffffffffffffffffffffffffffff82610860565b6108a78683610860565b95508019841693508086168417925050509392505050565b6000819050919050565b60006108e46108df6108da846102b0565b6108bf565b6102b0565b9050919050565b6000819050919050565b6108fe836108c9565b61091261090a826108eb565b84845461086d565b825550505050565b600090565b61092761091a565b6109328184846108f5565b505050565b5b818110156109565761094b60008261091f565b600181019050610938565b5050565b601f82111561099b5761096c8161083b565b61097584610850565b81016020851015610984578190505b61099861099085610850565b830182610937565b50505b505050565b600082821c905092915050565b60006109be600019846008026109a0565b1980831691505092915050565b60006109d783836109ad565b9150826002028217905092915050565b6109f082610313565b67ffffffffffffffff811115610a0957610a086103ec565b5b610a1382546105aa565b610a1e82828561095a565b600060209050601f831160018114610a515760008415610a3f578287015190505b610a4985826109cb565b865550610ab1565b601f198416610a5f8661083b565b60005b82811015610a8757848901518255600182019150602085019450602081019050610a62565b86831015610aa45784890151610aa0601f8916826109ad565b8355505b6001600288020188555050505b505050505050565b6000610ac4826102b0565b9150610acf836102b0565b9250828203905081811115610ae757610ae661062e565b5b92915050565b6000606082019050610b0260008301866103a3565b8181036020830152610b14818561036a565b9050610b2360408301846103a3565b94935050505056fea26469706673582212200599e37ace112ee2838dd5c392a8c8e6476334b11a29a6be187261ce5244133564736f6c634300081c0033",
          "opcodes": "PUSH1 0x80 PUSH1 0x40 MSTORE CALLVALUE DUP1 ISZERO PUSH1 0xF JUMPI PUSH1 0x0 DUP1 REVERT JUMPDEST POP PUSH2 0xB61 DUP1 PUSH2 0x1F PUSH1 0x0 CODECOPY PUSH1 0x0 RETURN INVALID PUSH1 0x80 PUSH1 0x40 MSTORE CALLVALUE DUP1 ISZERO PUSH2 0x10 JUMPI PUSH1 0x0 DUP1 REVERT JUMPDEST POP PUSH1 0x4 CALLDATASIZE LT PUSH2 0x41 JUMPI PUSH1 0x0 CALLDATALOAD PUSH1 0xE0 SHR DUP1 PUSH4 0x2052465E EQ PUSH2 0x46 JUMPI DUP1 PUSH4 0x7BFF0A01 EQ PUSH2 0x77 JUMPI DUP1 PUSH4 0xE343CDEC EQ PUSH2 0x93 JUMPI JUMPDEST PUSH1 0x0 DUP1 REVERT JUMPDEST PUSH2 0x60 PUSH1 0x4 DUP1 CALLDATASIZE SUB DUP2 ADD SWAP1 PUSH2 0x5B SWAP2 SWAP1 PUSH2 0x2E6 JUMP JUMPDEST PUSH2 0xB1 JUMP JUMPDEST PUSH1 0x40 MLOAD PUSH2 0x6E SWAP3 SWAP2 SWAP1 PUSH2 0x3B2 JUMP JUMPDEST PUSH1 0x40 MLOAD DUP1 SWAP2 SUB SWAP1 RETURN JUMPDEST PUSH2 0x91 PUSH1 0x4 DUP1 CALLDATASIZE SUB DUP2 ADD SWAP1 PUSH2 0x8C SWAP2 SWAP1 PUSH2 0x517 JUMP JUMPDEST PUSH2 0x16D JUMP JUMPDEST STOP JUMPDEST PUSH2 0x9B PUSH2 0x188 JUMP JUMPDEST PUSH1 0x40 MLOAD PUSH2 0xA8 SWAP2 SWAP1 PUSH2 0x560 JUMP JUMPDEST PUSH1 0x40 MLOAD DUP1 SWAP2 SUB SWAP1 RETURN JUMPDEST PUSH1 0x0 DUP2 DUP2 SLOAD DUP2 LT PUSH2 0xC1 JUMPI PUSH1 0x0 DUP1 REVERT JUMPDEST SWAP1 PUSH1 0x0 MSTORE PUSH1 0x20 PUSH1 0x0 KECCAK256 SWAP1 PUSH1 0x2 MUL ADD PUSH1 0x0 SWAP2 POP SWAP1 POP DUP1 PUSH1 0x0 ADD DUP1 SLOAD PUSH2 0xE4 SWAP1 PUSH2 0x5AA JUMP JUMPDEST DUP1 PUSH1 0x1F ADD PUSH1 0x20 DUP1 SWAP2 DIV MUL PUSH1 0x20 ADD PUSH1 0x40 MLOAD SWAP1 DUP2 ADD PUSH1 0x40 MSTORE DUP1 SWAP3 SWAP2 SWAP1 DUP2 DUP2 MSTORE PUSH1 0x20 ADD DUP3 DUP1 SLOAD PUSH2 0x110 SWAP1 PUSH2 0x5AA JUMP JUMPDEST DUP1 ISZERO PUSH2 0x15D JUMPI DUP1 PUSH1 0x1F LT PUSH2 0x132 JUMPI PUSH2 0x100 DUP1 DUP4 SLOAD DIV MUL DUP4 MSTORE SWAP2 PUSH1 0x20 ADD SWAP2 PUSH2 0x15D JUMP JUMPDEST DUP3 ADD SWAP2 SWAP1 PUSH1 0x0 MSTORE PUSH1 0x20 PUSH1 0x0 KECCAK256 SWAP1 JUMPDEST DUP2 SLOAD DUP2 MSTORE SWAP1 PUSH1 0x1 ADD SWAP1 PUSH1 0x20 ADD DUP1 DUP4 GT PUSH2 0x140 JUMPI DUP3 SWAP1 SUB PUSH1 0x1F AND DUP3 ADD SWAP2 JUMPDEST POP POP POP POP POP SWAP1 DUP1 PUSH1 0x1 ADD SLOAD SWAP1 POP DUP3 JUMP JUMPDEST PUSH1 0x0 PUSH2 0x178 DUP3 PUSH2 0x194 JUMP JUMPDEST SWAP1 POP PUSH2 0x184 DUP3 DUP3 PUSH2 0x1E4 JUMP JUMPDEST POP POP JUMP JUMPDEST PUSH1 0x0 DUP1 DUP1 SLOAD SWAP1 POP SWAP1 POP SWAP1 JUMP JUMPDEST PUSH1 0x0 DUP1 DUP3 PUSH1 0x40 MLOAD PUSH1 0x20 ADD PUSH2 0x1A8 SWAP2 SWAP1 PUSH2 0x617 JUMP JUMPDEST PUSH1 0x40 MLOAD PUSH1 0x20 DUP2 DUP4 SUB SUB DUP2 MSTORE SWAP1 PUSH1 0x40 MSTORE DUP1 MLOAD SWAP1 PUSH1 0x20 ADD KECCAK256 PUSH1 0x0 SHR SWAP1 POP PUSH1 0x10 PUSH1 0xA PUSH2 0x1D1 SWAP2 SWAP1 PUSH2 0x790 JUMP JUMPDEST DUP2 PUSH2 0x1DC SWAP2 SWAP1 PUSH2 0x80A JUMP JUMPDEST SWAP2 POP POP SWAP2 SWAP1 POP JUMP JUMPDEST PUSH1 0x0 PUSH1 0x40 MLOAD DUP1 PUSH1 0x40 ADD PUSH1 0x40 MSTORE DUP1 DUP5 DUP2 MSTORE PUSH1 0x20 ADD DUP4 DUP2 MSTORE POP SWAP1 DUP1 PUSH1 0x1 DUP2 SLOAD ADD DUP1 DUP3 SSTORE DUP1 SWAP2 POP POP PUSH1 0x1 SWAP1 SUB SWAP1 PUSH1 0x0 MSTORE PUSH1 0x20 PUSH1 0x0 KECCAK256 SWAP1 PUSH1 0x2 MUL ADD PUSH1 0x0 SWAP1 SWAP2 SWAP1 SWAP2 SWAP1 SWAP2 POP PUSH1 0x0 DUP3 ADD MLOAD DUP2 PUSH1 0x0 ADD SWAP1 DUP2 PUSH2 0x239 SWAP2 SWAP1 PUSH2 0x9E7 JUMP JUMPDEST POP PUSH1 0x20 DUP3 ADD MLOAD DUP2 PUSH1 0x1 ADD SSTORE POP POP PUSH1 0x0 PUSH1 0x1 PUSH1 0x0 DUP1 SLOAD SWAP1 POP PUSH2 0x25A SWAP2 SWAP1 PUSH2 0xAB9 JUMP JUMPDEST SWAP1 POP PUSH32 0x88F026AACBBECC90C18411DF4B1185FD8D9BE2470F1962F192BF84A27D0704B7 DUP2 DUP5 DUP5 PUSH1 0x40 MLOAD PUSH2 0x28F SWAP4 SWAP3 SWAP2 SWAP1 PUSH2 0xAED JUMP JUMPDEST PUSH1 0x40 MLOAD DUP1 SWAP2 SUB SWAP1 LOG1 POP POP POP JUMP JUMPDEST PUSH1 0x0 PUSH1 0x40 MLOAD SWAP1 POP SWAP1 JUMP JUMPDEST PUSH1 0x0 DUP1 REVERT JUMPDEST PUSH1 0x0 DUP1 REVERT JUMPDEST PUSH1 0x0 DUP2 SWAP1 POP SWAP2 SWAP1 POP JUMP JUMPDEST PUSH2 0x2C3 DUP2 PUSH2 0x2B0 JUMP JUMPDEST DUP2 EQ PUSH2 0x2CE JUMPI PUSH1 0x0 DUP1 REVERT JUMPDEST POP JUMP JUMPDEST PUSH1 0x0 DUP2 CALLDATALOAD SWAP1 POP PUSH2 0x2E0 DUP2 PUSH2 0x2BA JUMP JUMPDEST SWAP3 SWAP2 POP POP JUMP JUMPDEST PUSH1 0x0 PUSH1 0x20 DUP3 DUP5 SUB SLT ISZERO PUSH2 0x2FC JUMPI PUSH2 0x2FB PUSH2 0x2A6 JUMP JUMPDEST JUMPDEST PUSH1 0x0 PUSH2 0x30A DUP5 DUP3 DUP6 ADD PUSH2 0x2D1 JUMP JUMPDEST SWAP2 POP POP SWAP3 SWAP2 POP POP JUMP JUMPDEST PUSH1 0x0 DUP2 MLOAD SWAP1 POP SWAP2 SWAP1 POP JUMP JUMPDEST PUSH1 0x0 DUP3 DUP3 MSTORE PUSH1 0x20 DUP3 ADD SWAP1 POP SWAP3 SWAP2 POP POP JUMP JUMPDEST PUSH1 0x0 JUMPDEST DUP4 DUP2 LT ISZERO PUSH2 0x34D JUMPI DUP1 DUP3 ADD MLOAD DUP2 DUP5 ADD MSTORE PUSH1 0x20 DUP2 ADD SWAP1 POP PUSH2 0x332 JUMP JUMPDEST PUSH1 0x0 DUP5 DUP5 ADD MSTORE POP POP POP POP JUMP JUMPDEST PUSH1 0x0 PUSH1 0x1F NOT PUSH1 0x1F DUP4 ADD AND SWAP1 POP SWAP2 SWAP1 POP JUMP JUMPDEST PUSH1 0x0 PUSH2 0x375 DUP3 PUSH2 0x313 JUMP JUMPDEST PUSH2 0x37F DUP2 DUP6 PUSH2 0x31E JUMP JUMPDEST SWAP4 POP PUSH2 0x38F DUP2 DUP6 PUSH1 0x20 DUP7 ADD PUSH2 0x32F JUMP JUMPDEST PUSH2 0x398 DUP2 PUSH2 0x359 JUMP JUMPDEST DUP5 ADD SWAP2 POP POP SWAP3 SWAP2 POP POP JUMP JUMPDEST PUSH2 0x3AC DUP2 PUSH2 0x2B0 JUMP JUMPDEST DUP3 MSTORE POP POP JUMP JUMPDEST PUSH1 0x0 PUSH1 0x40 DUP3 ADD SWAP1 POP DUP2 DUP2 SUB PUSH1 0x0 DUP4 ADD MSTORE PUSH2 0x3CC DUP2 DUP6 PUSH2 0x36A JUMP JUMPDEST SWAP1 POP PUSH2 0x3DB PUSH1 0x20 DUP4 ADD DUP5 PUSH2 0x3A3 JUMP JUMPDEST SWAP4 SWAP3 POP POP POP JUMP JUMPDEST PUSH1 0x0 DUP1 REVERT JUMPDEST PUSH1 0x0 DUP1 REVERT JUMPDEST PUSH32 0x4E487B7100000000000000000000000000000000000000000000000000000000 PUSH1 0x0 MSTORE PUSH1 0x41 PUSH1 0x4 MSTORE PUSH1 0x24 PUSH1 0x0 REVERT JUMPDEST PUSH2 0x424 DUP3 PUSH2 0x359 JUMP JUMPDEST DUP2 ADD DUP2 DUP2 LT PUSH8 0xFFFFFFFFFFFFFFFF DUP3 GT OR ISZERO PUSH2 0x443 JUMPI PUSH2 0x442 PUSH2 0x3EC JUMP JUMPDEST JUMPDEST DUP1 PUSH1 0x40 MSTORE POP POP POP JUMP JUMPDEST PUSH1 0x0 PUSH2 0x456 PUSH2 0x29C JUMP JUMPDEST SWAP1 POP PUSH2 0x462 DUP3 DUP3 PUSH2 0x41B JUMP JUMPDEST SWAP2 SWAP1 POP JUMP JUMPDEST PUSH1 0x0 PUSH8 0xFFFFFFFFFFFFFFFF DUP3 GT ISZERO PUSH2 0x482 JUMPI PUSH2 0x481 PUSH2 0x3EC JUMP JUMPDEST JUMPDEST PUSH2 0x48B DUP3 PUSH2 0x359 JUMP JUMPDEST SWAP1 POP PUSH1 0x20 DUP2 ADD SWAP1 POP SWAP2 SWAP1 POP JUMP JUMPDEST DUP3 DUP2 DUP4 CALLDATACOPY PUSH1 0x0 DUP4 DUP4 ADD MSTORE POP POP POP JUMP JUMPDEST PUSH1 0x0 PUSH2 0x4BA PUSH2 0x4B5 DUP5 PUSH2 0x467 JUMP JUMPDEST PUSH2 0x44C JUMP JUMPDEST SWAP1 POP DUP3 DUP2 MSTORE PUSH1 0x20 DUP2 ADD DUP5 DUP5 DUP5 ADD GT ISZERO PUSH2 0x4D6 JUMPI PUSH2 0x4D5 PUSH2 0x3E7 JUMP JUMPDEST JUMPDEST PUSH2 0x4E1 DUP5 DUP3 DUP6 PUSH2 0x498 JUMP JUMPDEST POP SWAP4 SWAP3 POP POP POP JUMP JUMPDEST PUSH1 0x0 DUP3 PUSH1 0x1F DUP4 ADD SLT PUSH2 0x4FE JUMPI PUSH2 0x4FD PUSH2 0x3E2 JUMP JUMPDEST JUMPDEST DUP2 CALLDATALOAD PUSH2 0x50E DUP5 DUP3 PUSH1 0x20 DUP7 ADD PUSH2 0x4A7 JUMP JUMPDEST SWAP2 POP POP SWAP3 SWAP2 POP POP JUMP JUMPDEST PUSH1 0x0 PUSH1 0x20 DUP3 DUP5 SUB SLT ISZERO PUSH2 0x52D JUMPI PUSH2 0x52C PUSH2 0x2A6 JUMP JUMPDEST JUMPDEST PUSH1 0x0 DUP3 ADD CALLDATALOAD PUSH8 0xFFFFFFFFFFFFFFFF DUP2 GT ISZERO PUSH2 0x54B JUMPI PUSH2 0x54A PUSH2 0x2AB JUMP JUMPDEST JUMPDEST PUSH2 0x557 DUP5 DUP3 DUP6 ADD PUSH2 0x4E9 JUMP JUMPDEST SWAP2 POP POP SWAP3 SWAP2 POP POP JUMP JUMPDEST PUSH1 0x0 PUSH1 0x20 DUP3 ADD SWAP1 POP PUSH2 0x575 PUSH1 0x0 DUP4 ADD DUP5 PUSH2 0x3A3 JUMP JUMPDEST SWAP3 SWAP2 POP POP JUMP JUMPDEST PUSH32 0x4E487B7100000000000000000000000000000000000000000000000000000000 PUSH1 0x0 MSTORE PUSH1 0x22 PUSH1 0x4 MSTORE PUSH1 0x24 PUSH1 0x0 REVERT JUMPDEST PUSH1 0x0 PUSH1 0x2 DUP3 DIV SWAP1 POP PUSH1 0x1 DUP3 AND DUP1 PUSH2 0x5C2 JUMPI PUSH1 0x7F DUP3 AND SWAP2 POP JUMPDEST PUSH1 0x20 DUP3 LT DUP2 SUB PUSH2 0x5D5 JUMPI PUSH2 0x5D4 PUSH2 0x57B JUMP JUMPDEST JUMPDEST POP SWAP2 SWAP1 POP JUMP JUMPDEST PUSH1 0x0 DUP2 SWAP1 POP SWAP3 SWAP2 POP POP JUMP JUMPDEST PUSH1 0x0 PUSH2 0x5F1 DUP3 PUSH2 0x313 JUMP JUMPDEST PUSH2 0x5FB DUP2 DUP6 PUSH2 0x5DB JUMP JUMPDEST SWAP4 POP PUSH2 0x60B DUP2 DUP6 PUSH1 0x20 DUP7 ADD PUSH2 0x32F JUMP JUMPDEST DUP1 DUP5 ADD SWAP2 POP POP SWAP3 SWAP2 POP POP JUMP JUMPDEST PUSH1 0x0 PUSH2 0x623 DUP3 DUP5 PUSH2 0x5E6 JUMP JUMPDEST SWAP2 POP DUP2 SWAP1 POP SWAP3 SWAP2 POP POP JUMP JUMPDEST PUSH32 0x4E487B7100000000000000000000000000000000000000000000000000000000 PUSH1 0x0 MSTORE PUSH1 0x11 PUSH1 0x4 MSTORE PUSH1 0x24 PUSH1 0x0 REVERT JUMPDEST PUSH1 0x0 DUP2 PUSH1 0x1 SHR SWAP1 POP SWAP2 SWAP1 POP JUMP JUMPDEST PUSH1 0x0 DUP1 DUP3 SWAP2 POP DUP4 SWAP1 POP JUMPDEST PUSH1 0x1 DUP6 GT ISZERO PUSH2 0x6B4 JUMPI DUP1 DUP7 DIV DUP2 GT ISZERO PUSH2 0x690 JUMPI PUSH2 0x68F PUSH2 0x62E JUMP JUMPDEST JUMPDEST PUSH1 0x1 DUP6 AND ISZERO PUSH2 0x69F JUMPI DUP1 DUP3 MUL SWAP2 POP JUMPDEST DUP1 DUP2 MUL SWAP1 POP PUSH2 0x6AD DUP6 PUSH2 0x65D JUMP JUMPDEST SWAP5 POP PUSH2 0x674 JUMP JUMPDEST SWAP5 POP SWAP5 SWAP3 POP POP POP JUMP JUMPDEST PUSH1 0x0 DUP3 PUSH2 0x6CD JUMPI PUSH1 0x1 SWAP1 POP PUSH2 0x789 JUMP JUMPDEST DUP2 PUSH2 0x6DB JUMPI PUSH1 0x0 SWAP1 POP PUSH2 0x789 JUMP JUMPDEST DUP2 PUSH1 0x1 DUP2 EQ PUSH2 0x6F1 JUMPI PUSH1 0x2 DUP2 EQ PUSH2 0x6FB JUMPI PUSH2 0x72A JUMP JUMPDEST PUSH1 0x1 SWAP2 POP POP PUSH2 0x789 JUMP JUMPDEST PUSH1 0xFF DUP5 GT ISZERO PUSH2 0x70D JUMPI PUSH2 0x70C PUSH2 0x62E JUMP JUMPDEST JUMPDEST DUP4 PUSH1 0x2 EXP SWAP2 POP DUP5 DUP3 GT ISZERO PUSH2 0x724 JUMPI PUSH2 0x723 PUSH2 0x62E JUMP JUMPDEST JUMPDEST POP PUSH2 0x789 JUMP JUMPDEST POP PUSH1 0x20 DUP4 LT PUSH2 0x133 DUP4 LT AND PUSH1 0x4E DUP5 LT PUSH1 0xB DUP5 LT AND OR ISZERO PUSH2 0x75F JUMPI DUP3 DUP3 EXP SWAP1 POP DUP4 DUP2 GT ISZERO PUSH2 0x75A JUMPI PUSH2 0x759 PUSH2 0x62E JUMP JUMPDEST JUMPDEST PUSH2 0x789 JUMP JUMPDEST PUSH2 0x76C DUP5 DUP5 DUP5 PUSH1 0x1 PUSH2 0x66A JUMP JUMPDEST SWAP3 POP SWAP1 POP DUP2 DUP5 DIV DUP2 GT ISZERO PUSH2 0x783 JUMPI PUSH2 0x782 PUSH2 0x62E JUMP JUMPDEST JUMPDEST DUP2 DUP2 MUL SWAP1 POP JUMPDEST SWAP4 SWAP3 POP POP POP JUMP JUMPDEST PUSH1 0x0 PUSH2 0x79B DUP3 PUSH2 0x2B0 JUMP JUMPDEST SWAP2 POP PUSH2 0x7A6 DUP4 PUSH2 0x2B0 JUMP JUMPDEST SWAP3 POP PUSH2 0x7D3 PUSH32 0xFFFFFFFFFFFFFFFFFFFFFFFFFFFFFFFFFFFFFFFFFFFFFFFFFFFFFFFFFFFFFFFF DUP5 DUP5 PUSH2 0x6BD JUMP JUMPDEST SWAP1 POP SWAP3 SWAP2 POP POP JUMP JUMPDEST PUSH32 0x4E487B7100000000000000000000000000000000000000000000000000000000 PUSH1 0x0 MSTORE PUSH1 0x12 PUSH1 0x4 MSTORE PUSH1 0x24 PUSH1 0x0 REVERT JUMPDEST PUSH1 0x0 PUSH2 0x815 DUP3 PUSH2 0x2B0 JUMP JUMPDEST SWAP2 POP PUSH2 0x820 DUP4 PUSH2 0x2B0 JUMP JUMPDEST SWAP3 POP DUP3 PUSH2 0x830 JUMPI PUSH2 0x82F PUSH2 0x7DB JUMP JUMPDEST JUMPDEST DUP3 DUP3 MOD SWAP1 POP SWAP3 SWAP2 POP POP JUMP JUMPDEST PUSH1 0x0 DUP2 SWAP1 POP DUP2 PUSH1 0x0 MSTORE PUSH1 0x20 PUSH1 0x0 KECCAK256 SWAP1 POP SWAP2 SWAP1 POP JUMP JUMPDEST PUSH1 0x0 PUSH1 0x20 PUSH1 0x1F DUP4 ADD DIV SWAP1 POP SWAP2 SWAP1 POP JUMP JUMPDEST PUSH1 0x0 DUP3 DUP3 SHL SWAP1 POP SWAP3 SWAP2 POP POP JUMP JUMPDEST PUSH1 0x0 PUSH1 0x8 DUP4 MUL PUSH2 0x89D PUSH32 0xFFFFFFFFFFFFFFFFFFFFFFFFFFFFFFFFFFFFFFFFFFFFFFFFFFFFFFFFFFFFFFFF DUP3 PUSH2 0x860 JUMP JUMPDEST PUSH2 0x8A7 DUP7 DUP4 PUSH2 0x860 JUMP JUMPDEST SWAP6 POP DUP1 NOT DUP5 AND SWAP4 POP DUP1 DUP7 AND DUP5 OR SWAP3 POP POP POP SWAP4 SWAP3 POP POP POP JUMP JUMPDEST PUSH1 0x0 DUP2 SWAP1 POP SWAP2 SWAP1 POP JUMP JUMPDEST PUSH1 0x0 PUSH2 0x8E4 PUSH2 0x8DF PUSH2 0x8DA DUP5 PUSH2 0x2B0 JUMP JUMPDEST PUSH2 0x8BF JUMP JUMPDEST PUSH2 0x2B0 JUMP JUMPDEST SWAP1 POP SWAP2 SWAP1 POP JUMP JUMPDEST PUSH1 0x0 DUP2 SWAP1 POP SWAP2 SWAP1 POP JUMP JUMPDEST PUSH2 0x8FE DUP4 PUSH2 0x8C9 JUMP JUMPDEST PUSH2 0x912 PUSH2 0x90A DUP3 PUSH2 0x8EB JUMP JUMPDEST DUP5 DUP5 SLOAD PUSH2 0x86D JUMP JUMPDEST DUP3 SSTORE POP POP POP POP JUMP JUMPDEST PUSH1 0x0 SWAP1 JUMP JUMPDEST PUSH2 0x927 PUSH2 0x91A JUMP JUMPDEST PUSH2 0x932 DUP2 DUP5 DUP5 PUSH2 0x8F5 JUMP JUMPDEST POP POP POP JUMP JUMPDEST JUMPDEST DUP2 DUP2 LT ISZERO PUSH2 0x956 JUMPI PUSH2 0x94B PUSH1 0x0 DUP3 PUSH2 0x91F JUMP JUMPDEST PUSH1 0x1 DUP2 ADD SWAP1 POP PUSH2 0x938 JUMP JUMPDEST POP POP JUMP JUMPDEST PUSH1 0x1F DUP3 GT ISZERO PUSH2 0x99B JUMPI PUSH2 0x96C DUP2 PUSH2 0x83B JUMP JUMPDEST PUSH2 0x975 DUP5 PUSH2 0x850 JUMP JUMPDEST DUP2 ADD PUSH1 0x20 DUP6 LT ISZERO PUSH2 0x984 JUMPI DUP2 SWAP1 POP JUMPDEST PUSH2 0x998 PUSH2 0x990 DUP6 PUSH2 0x850 JUMP JUMPDEST DUP4 ADD DUP3 PUSH2 0x937 JUMP JUMPDEST POP POP JUMPDEST POP POP POP JUMP JUMPDEST PUSH1 0x0 DUP3 DUP3 SHR SWAP1 POP SWAP3 SWAP2 POP POP JUMP JUMPDEST PUSH1 0x0 PUSH2 0x9BE PUSH1 0x0 NOT DUP5 PUSH1 0x8 MUL PUSH2 0x9A0 JUMP JUMPDEST NOT DUP1 DUP4 AND SWAP2 POP POP SWAP3 SWAP2 POP POP JUMP JUMPDEST PUSH1 0x0 PUSH2 0x9D7 DUP4 DUP4 PUSH2 0x9AD JUMP JUMPDEST SWAP2 POP DUP3 PUSH1 0x2 MUL DUP3 OR SWAP1 POP SWAP3 SWAP2 POP POP JUMP JUMPDEST PUSH2 0x9F0 DUP3 PUSH2 0x313 JUMP JUMPDEST PUSH8 0xFFFFFFFFFFFFFFFF DUP2 GT ISZERO PUSH2 0xA09 JUMPI PUSH2 0xA08 PUSH2 0x3EC JUMP JUMPDEST JUMPDEST PUSH2 0xA13 DUP3 SLOAD PUSH2 0x5AA JUMP JUMPDEST PUSH2 0xA1E DUP3 DUP3 DUP6 PUSH2 0x95A JUMP JUMPDEST PUSH1 0x0 PUSH1 0x20 SWAP1 POP PUSH1 0x1F DUP4 GT PUSH1 0x1 DUP2 EQ PUSH2 0xA51 JUMPI PUSH1 0x0 DUP5 ISZERO PUSH2 0xA3F JUMPI DUP3 DUP8 ADD MLOAD SWAP1 POP JUMPDEST PUSH2 0xA49 DUP6 DUP3 PUSH2 0x9CB JUMP JUMPDEST DUP7 SSTORE POP PUSH2 0xAB1 JUMP JUMPDEST PUSH1 0x1F NOT DUP5 AND PUSH2 0xA5F DUP7 PUSH2 0x83B JUMP JUMPDEST PUSH1 0x0 JUMPDEST DUP3 DUP2 LT ISZERO PUSH2 0xA87 JUMPI DUP5 DUP10 ADD MLOAD DUP3 SSTORE PUSH1 0x1 DUP3 ADD SWAP2 POP PUSH1 0x20 DUP6 ADD SWAP5 POP PUSH1 0x20 DUP2 ADD SWAP1 POP PUSH2 0xA62 JUMP JUMPDEST DUP7 DUP4 LT ISZERO PUSH2 0xAA4 JUMPI DUP5 DUP10 ADD MLOAD PUSH2 0xAA0 PUSH1 0x1F DUP10 AND DUP3 PUSH2 0x9AD JUMP JUMPDEST DUP4 SSTORE POP JUMPDEST PUSH1 0x1 PUSH1 0x2 DUP9 MUL ADD DUP9 SSTORE POP POP POP JUMPDEST POP POP POP POP POP POP JUMP JUMPDEST PUSH1 0x0 PUSH2 0xAC4 DUP3 PUSH2 0x2B0 JUMP JUMPDEST SWAP2 POP PUSH2 0xACF DUP4 PUSH2 0x2B0 JUMP JUMPDEST SWAP3 POP DUP3 DUP3 SUB SWAP1 POP DUP2 DUP2 GT ISZERO PUSH2 0xAE7 JUMPI PUSH2 0xAE6 PUSH2 0x62E JUMP JUMPDEST JUMPDEST SWAP3 SWAP2 POP POP JUMP JUMPDEST PUSH1 0x0 PUSH1 0x60 DUP3 ADD SWAP1 POP PUSH2 0xB02 PUSH1 0x0 DUP4 ADD DUP7 PUSH2 0x3A3 JUMP JUMPDEST DUP2 DUP2 SUB PUSH1 0x20 DUP4 ADD MSTORE PUSH2 0xB14 DUP2 DUP6 PUSH2 0x36A JUMP JUMPDEST SWAP1 POP PUSH2 0xB23 PUSH1 0x40 DUP4 ADD DUP5 PUSH2 0x3A3 JUMP JUMPDEST SWAP5 SWAP4 POP POP POP POP JUMP INVALID LOG2 PUSH5 0x6970667358 0x22 SLT KECCAK256 SDIV SWAP10 0xE3 PUSH27 0xCE112EE2838DD5C392A8C8E6476334B11A29A6BE187261CE524413 CALLDATALOAD PUSH5 0x736F6C6343 STOP ADDMOD SHR STOP CALLER "
        },
        "methodIdentifiers": {
          "createRandomZombie(string)": "7bff0a01",
          "getZombiesCount()": "e343cdec",
          "zombies(uint256)": "2052465e"
        }
      }
    }
  }
}